:020000040800F2
:20000000000002204D09000800000000000000000000000000000000000000000000000060
:20002000000000000000000000000000000000000000000000000000000000008D09000822
:200040000000000000000000000000000000000000000000000000000000000000000000A0
:20006000000000000000000000000000000000000000000000000000000000000000000080
:20008000000000000000000000000000000000000000000000000000000000000000000060
:2000A000000000000000000000000000000000000000000000000000000000000000000040
:2000C000000000000000000000000000000000000000000000000000000000000000000020
:2000E000000000000000000000000000000000000000000000000000000000000000000000
:200100000000000000000000000000000000000000000000000000000000000000000000DF
:200120000000000000000000000000000000000000000000000000000000000000000000BF
:2001400000000000000000000000000000000000000000000000000000000000000000009F
:2001600000000000000000000000000000000000000000000000000000000000000000007F
:2001800000000000844641EA000313F003036DD1403A41D351F8043B40F8043B51F8043B0B
:2001A00040F8043B51F8043B40F8043B51F8043B40F8043B51F8043B40F8043B51F8043B43
:2001C00040F8043B51F8043B40F8043B51F8043B40F8043B51F8043B40F8043B51F8043B23
:2001E00040F8043B51F8043B40F8043B51F8043B40F8043B51F8043B40F8043B51F8043B03
:2002000040F8043B51F8043B40F8043B51F8043B40F8043B403ABDD2303211D351F8043B92
:2002200040F8043B51F8043B40F8043B51F8043B40F8043B51F8043B40F8043B103AEDD241
:200240000C3205D351F8043B40F8043B043AF9D2043208D0D2071CBF11F8013B00F8013B45
:2002600001D30B8803806046704700BF082A13D38B078DD010F003038AD0C3F10403D21A6A
:20028000DB071CBF11F8013B00F8013B80D331F8023B20F8023B7BE7043AD9D3013A11F88A
:2002A000013B00F8013BF9D20B7803704B7843708B78837060467047003018BF0120704765
:2002C000003018BF01207047F8B50E4698B99D181446AC420DD004272146304600F0DCFA45
:2002E00018B1013FF8D10120F8BD06F500760134EFE70020F8BD0420F8BD2DE9F0470E468B
:2003000090469946F0B904460C254C4517D2C4EB090292B2954228BF1546042704EB080A47
:200320002A465146304600F00DFA20B1013FF7D10120BDE8F08706EB45262C44E5E700207B
:20034000BDE8F0870420BDE8F0870000054B064A1B7811888342054B186801D001F0C7BB9C
:2003600001F0C7BB060000200400002008000020F7B502AD002345F8043D0C4B0C4F1E6864
:2003800000901C462946684600F048F8431C0BD023689E42FCD800283B68D4BF0020012006
:2003A0001E44FFF7D3FFEDE703B0F0BD180000200000002008B504462046FFF7D9FF024802
:2003C000FFF7D6FFF8E700BF0C200008F7B5064668460D461746002401F080FB01236946C7
:2003E00030468DF8043000958DF805408DF806408DF8074001F030FB054B1F70054B1E600F
:20040000054B20461D80FFF7A1FF03B0F0BD00BF0600002008000020040000208B7810B59A
:20042000082B52D8DFE803F00534383A3C4F4B4D4F0003681A78002A49D00023272A0B7059
:200440001BD95A2A04D8234B1A4412F8283C07E0A2F16104182C10D81E4B1A4412F8483CAE
:2004600003F0C002C02A13BF5A0906229B00013216BFDB000A700A70DBB24B700368013327
:200480000360087808B1042303E001238B7010BD02238B70002010BD0323FAE7002001E0B5
:2004A000087808B9887010BD4B781A064CBF062205225B0001388A704B700870EAE707233D
:2004C00002E0082300E004238B70012010BD4FF0FF3010BD0F20000837B5012303FA01F2AD
:2004E0000092022205460C468DF804208DF80520694600228DF806208DF8073001F0ACFA87
:200500000C222146284601F0F6FA03B030BD000070B512F0020F86B002F001060CBFB30171
:20052000C023039300230290049305464FF4806301A801911446059301F0C6FB002E114A1D
:20054000114814BF4521C521013A436B16D00B42FAD00D4A0D499163620758BF23F0010305
:2005600040F23F221A404AB914F0100008D001F0C1FB281A18BF4FF0FF3001E04FF0FF301C
:2005800006B070BD62E31600002C0140FF07C00008B51522FFF7BCFF58B901F0B1FB20F483
:2005A000FF5323F01F032BB980F48070C0F3002008BD08BD4FF0FF3008BD000038B5084B9C
:2005C0000D461988044609043720FFF7E1FF002805DB29462046BDE83840FFF7D9BF38BD26
:2005E0000C0000202DE9F041062186B005465048504CFFF771FF08214D48FFF76DFF0921FC
:200600004B48FFF769FF05214B48FFF765FF07214948FFF761FF0F214748FFF75DFF684608
:2006200001F03EFB762368468DF8143001F020FB032001F043FB012001F03AFB0022114662
:2006400010462270FFF764FF00286BD105224FF4ED710820FFF75CFF30B901F051FBC0F3DB
:200660000B00B0F5ED7F5AD0344F42F21276013E58D00021372094F80080FFF789FF002864
:2006800050DBB8F1000F14BF39464FF4801101222920FFF73DFF002844D101F031FB002831
:2006A000E5DA10F0804008BF2070072200210220FFF72EFF0446A8BB014605220320FFF7A1
:2006C00027FF00282EDB204601F01AFB00F47E43B3F5806F26D11A4E8DF81440000C308017
:2006E000684601F0C5FA318807200904FFF750FF002817DB4FF400711020FFF749FF0446E4
:2007000080B98DB102210620FFF758FF002809DB4FF400636846039301F0AAFA04E0012339
:200720002370A1E74FF0FF34204606B0BDE8F081000002400E0000200004024000001040F4
:200740000C000020F0B54C4B1B7891B006460C46154623B9B1F5000F80F087804C02474F78
:2007600039880D200904FFF713FF0028F8DC012D29D121461820FFF70BFF002879D14049B8
:20078000404801F0CBF83F4800F0EEFF00213D4801F09AF84FF0006301933B4B02934023DC
:2007A00004934FF480536F020022089316F0030F4FF480630793039606924FEA97030BD1A6
:2007C0004FF4804208E029461720FFF7F7FE00284FD121461920CEE705934FF440330B9312
:2007E0000423002601240C9301A94FF40013254809920F930A960D940E9601F03BF82021F4
:20080000204801F06AF821461E4801F05DF81F4B019301A8902303930297049605960694B2
:2008200001F07AFA204601F093FA194A536B40F23F20184018B9DB05F8D5044601E04FF07D
:20084000FF3400210F4801F03FF8114B114A9A6324B100210C20FFF79BFE06E0012D07D96C
:2008600021460C20FFF794FE02E04FF0FF3000E0204611B0F0BD00BF0E0000200C00002040
:2008800000003D20A0640240802C014080F0FA02002C0140FF07C000F0B5274C87B006468E
:2008A0000F4621880D200904FFF772FE0028F8DC224B1B781BB9B7F5000F39D27F02204D16
:2008C0000FCD6C460FC495E8030084E80300684601F022FA39461120FFF75AFE002829DBE3
:2008E000184D80246B6B40F23F221A40B2B99A020DD5002C12DD01F025FA030A3070737088
:20090000030C000EB370F070013C0436EAE75B05E8D5201C18BF0120404201E04FF0FF30CD
:20092000084B094A9A6328B100210C20FFF730FE4FF0FF3007B0F0BD0C0000200E0000209E
:20094000F41F0008002C0140FF07C000084B094A9A600948094A0A49121AFFF713FC094830
:20096000094A0021121A01F0F7FA01F09FFA00BF00ED00E000000008000000200400002093
:200980000C210008040000201C000020684620F007018D4601B5044ABDE801401368013390
:2009A00013608546704700BF1800002042884378007843EA022340EA032070474369023911
:2009C000023B99423DBF4389806A01FB030000207047026810B58AB111460B4611F8014B10
:2009E000202C09D93A2CF8D1511C8B4206D11278302A03D101330360002010BD4FF0FF30DF
:200A000010BD38B50D46044618B900232B60092038BD0368002BF8D01A78002AF5D0D988A2
:200A200082889142F1D15878FFF746FC10F00100EBD123682B6038BD01380A4411F8013B7B
:200A400000F8013F9142F9D17047CA7E8B7E032843EA022301BF487D0A7D42EA002243EAB5
:200A6000024318467047C2F307238A76CB760378032B01BF120C0A75120A4A757047F8B5B7
:200A8000C56A00F13007044601232A4639464078FFF733FCA0B9236AA269E070EB1A9342AA
:200AA00001D30020F8BDA678012EFAD9A36960781D442A4601233946FFF71FFC013EF3E7EB
:200AC0000120F8BDC3780BB1FFF7D9BF18467047C36A8B4270B506460D4611D0FFF7F2FF20
:200AE000044670B92A46012306F130017078FFF7EBFB00281CBF4FF0FF350124F56200E031
:200B00000024204670BD000038B50023C3704FF0FF33C3620446FFF7DBFF0146E8B994F8B7
:200B20002F2294F82E3243EA02234AF65522934215D104F16600FFF739FF0B4D20F07F4004
:200B4000A8420ED004F18200FFF730FF20F07F40A84214BF0220002038BD042038BD032032
:200B600038BD084638BD00BF464154002DE9FF4100230B600F461546FFF72BFF061EC0F219
:200B800026819C4B53F82640002C00F022813C60237805F0FE0583B16078FFF78DFBC707D0
:200BA0000BD4002D00F0178100F0040303F0FF00002B00F01B810A2018E10023F0B2237086
:200BC0006070FFF77DFBC10700F107810DB14207F1D400212046FFF797FF02281FD104F5A4
:200BE000FB75002115F8040C10B12846FFF7DEFE4DF821000131042905F11005F2D100268D
:200C00005DF8265035B129462046FFF77DFF012801D80CE003200136042EF1D1DFE00428B5
:200C200000F0E080012801D90D20DFE0002594F83C2094F83B3043EA0223B3F5007FF3D134
:200C400094F8471094F8463053EA012104D104F15400FFF7ABFE014694F84080A16108F105
:200C6000FF33012B84F80280DED894F83D60B3B26381002BD8D0731E3342D5D194F8413074
:200C800094F8427043EA07273B072781CCD194F8440094F8433053EA002003D104F15000EF
:200CA000FFF784FE94F83F2094F83E3053EA0222BAD001FB08FE02EB171373449842B3D3BC
:200CC000C01AB0FBF6F00028AED040F6F576B04200F102082A442B441BD94FF6F576B04202
:200CE00040F282802262A36294F85B2094F85A30C4F8148053EA0223E56195D1002F93D129
:200D000004F15C00FFF752FE032660624FEA880315E00126C4F81480E5612262A362002F23
:200D200082D0022E4FEA480318BF4344724418BF08F0010862621CBF08EB5303012603F2BD
:200D4000FF13B1EB532FFFF46FAF4FF0FF332361E360032E4FF0800323712FD194F8612086
:200D600094F8603043EA0223012B27D1691C2046FFF7AEFE10BB94F82F2294F82E3220712F
:200D800043EA02234AF65522934217D104F13000FFF70CFE184B984210D104F50570FFF7E6
:200DA00005FE164B984209D104F50670FFF7FEFD206104F50770FFF7F9FDE060104A2670AE
:200DC000138801339BB21380E38000200EE00B200CE00C200AE0284608E0032006E004283B
:200DE0007FF422AF012001E0022693E704B0BDE8F08100BF14000020525261417272416182
:200E0000100000200129F8B506460C4652D9436999424FD20378022B29D0032B39D0012B56
:200E200048D101EB5105016A01EB5521FFF750FE10B14FF0FF30F8BD6F1C316AC5F3080577
:200E4000354401EB5721304695F83050FFF740FE0028EED1C7F308073E44E30796F8300024
:200E600045EA00204CBF0009C0F30B00F8BD016A01EB1421FFF72CFE0028DAD1640004F4C1
:200E8000FF74331993F8310093F8303043EA0020F8BD016A01EBD411FFF71AFE0028C8D1DF
:200EA000A00000F4FE7030303044FFF77FFD20F07040F8BD0120F8BD826838B5002305465A
:200EC0000468036162B92378022B01D9636A33B923890BB9022038BD636AAB6114E01A4618
:200EE000638963B911462868FFF78CFF431C024612D00128EED963699842F3D3EAE7114675
:200F00002046FFF75BFDA861AB696A61002BE1D03034EC61002038BD012038BD01292DE93D
:200F2000F04105460C46164675D94369994272D20378022B3CD0032B4CD0012B6BD101EB1C
:200F40005107016A01EB5721FFF7C2FD0146002862D107F10108C7F308072F4414F00104CD
:200F60001FBF97F8303003F00F0343EA0613DBB208BFF3B287F83030296A012301EB582165
:200F8000EB702846FFF7A4FD0146002844D1C8F30808A84414B1C6F3071606E098F8303045
:200FA000C6F3032623F00F031E4388F830602FE0016A01EB1421FFF78BFD014660BB6400DA
:200FC00004F4FF742B1983F83060C6F3072683F831601DE0016A01EBD411FFF779FD014679
:200FE000D0B9A40004F4FE7404F130072F443846FFF7DCFC26F0704600F0704006432C444A
:20100000330A84F830607B70330C360EBB70FE700123EB7000E002210846BDE8F0812DE984
:20102000F041804605680F4631B9EE68A6B16B699E4228BF012610E02846FFF7E3FE012840
:2010400045D9431C03D14FF0FF30BDE8F0816B6998423DD33E4600E0012634466B690134EF
:201060009C4205D3012E02D80020BDE8F08102242146D8F80000FFF7C5FE30B1012826D065
:201080000130E0D0B442E9D1EEE74FF0FF3221462846FFF743FFC0B947B96A692B69EC6041
:2010A000023A93420AD2013B2B6107E0224639462846FFF733FF0028EFD006E02B7943F073
:2010C00001032B712046BDE8F0810128BBD00120BDE8F08183692DE9F04705468946002B8B
:2010E00071D007692037B7F5001F6CD2C7F308080468B8F1000F5ED141690133836131B916
:201100002389B3EB571F56D80023AB615BE06389013B13EA57234ED12046FFF773FE0128C3
:20112000064602D80220BDE8F087421C02D10120BDE8F0876369984237D3B9F1000FE3D0C1
:2011400069692846FFF76BFF064600283ED00128E8D0431CEBD02046FFF7B4FC0028E6D187
:2011600004F1300304F50C7203F8010B9342FBD131462046FFF722FC4FF00009E0624FF06E
:20118000010A638999450CD284F803A02046FFF776FC0028CBD1E36A013309F10109E36221
:2011A000EFE7E36AC9EB0303E3626E6131462046FFF704FCA86108F1300844442F61EC61CC
:2011C0000020BDE8F0870420BDE8F0870720BDE8F08700002DE9F047066804460B782F2B6E
:2011E0000D4601F10101F9D05C2BF7D00023A3602B781F2B01D9694F5BE0236A8022DA7236
:201200002046BDE8F047FFF757BE03F8011B9A42FBD1002105F1FF3A8E464FF0080C0B46FA
:201220001AF8012F202A0EF1010E48D8AE449EF80080B8F12F0F75460EF1010EF7D0B8F1CC
:201240005C0FF4D0212A34BF04220022002900F082800178E52904BF05210170BCF1080F19
:2012600004BF9B00DBB203F00301012903F00C0308BF42F01002042B08BF42F00802C272EF
:201280002046D4F80080FFF717FE002831D0236ADB7A002854D15A077DD4A379DB0657D55E
:2012A00021693078C1F3080130313144FFF7CDFBA060206A202100F10B020346A5E72F2AB4
:2012C000B4D05C2AB2D02E2A5CD08C4543D912F0800F18BF803ADFF8C8901CBFBA5C43F09C
:2012E000030319F8018FB8F1000F37D04245F8D131E0A1694046FFF7EBFB0028C7D1E369AF
:201300001A78DAB1DA7A02F03F02A271DA7A11070FD4216A03F10B0E13F8012B11F801CB23
:201320007345CCEB020202D0002AF5D001E0002AADD000212046FFF7CDFEA6E70420A6E76B
:20134000042828D113F0040F08BF0520BDE8F0870520BDE8F0870620BDE8F087A2F14108EB
:20136000B8F1190F02D843F0020308E0A2F16108B8F1190F9EBF203A43F00103D2B24254CD
:2013800001314DE7BCF1080FE5D19B006146DBB24FF00B0C44E7BDE8F08700BF51200008C9
:2013A0004120000870B505460668FFF785FD044638BBA9693046FFF78BFB044608BBEB69CC
:2013C0001B78E52B0AD1A9693046FFF781FB0446D0B9EB69014603F1200206E0002BF2D03E
:2013E00001212846FFF776FEE1E703F8011B9A42FBD10B22296AE869FFF71EFB0123F370C5
:2014000002E0042C08BF0724204670BDF8B50D46012D0746114601D80220F8BD046863697B
:201420009D42F9D22AB14FF0FF322046FFF776FD00BB29463868FFF7E5FC064608B900201A
:20144000F8BD0128E8D0411C13D0002229462046FFF764FD70B923695A1C05D001332361B0
:20146000237943F00103237163699E423546E0D3E5E70120F8BD00001FB5019004A80091E7
:2014800040F8041D1446FFF7A4FA011E14DB0D4B53F8210008B100220270019808B1002272
:2014A000027043F8210050B1012C07D1002201A96846FFF75BFB02E00B2000E0002004B0D1
:2014C00010BD00BF140000202DE9F04391B0154601910446002800F09180002302F01F0628
:2014E0000360324603A901A8FFF740FB002840F08C80039B0793019904AB07A80F93FFF75F
:2015000069FE28B90F9B93F90B30002BB8BF062015F01C0F4DD048B1042876D107A8FFF7EC
:2015200041FF002871D146F0080606E09DF8223013F0110F68D16F0762D4350746D50E9BE8
:20154000DDF80C8000258F21482219745A749D73DD730E9B19765A769D75DD750E9B2022D9
:20156000DA72DDF8389098F800004946FFF76DFA2A46074649464046FFF775FA0E9B1D7792
:201580005D779D77DD77039B0122DA70E7B12A46394607A8D3F82C80FFF738FF002834D1FD
:2015A00041460398FFF794FA039B013FDF6048B12BE050BB9DF82230D80623D4A90701D517
:2015C000DA0721D4330701D546F02006039D0E9FEB6A2362676228783946FFF736FAA06094
:2015E00007F11C00FFF7E2F9E060002060742674EB886061E0612560A38006E0092004E028
:20160000082002E0042000E0072011B0BDE8F0832DE9F04F984685B000230F46C8F80030EC
:2016200003A905461446FFF7ECF9002840F09880687C002840F094802B7CD80740F18F80F8
:20164000EB686869181A844228BF044605F1280A002C00F082806A69C2F30803002B63D105
:20166000039B5B89013B13EA522312D10AB9A86805E0A96928680193FFF7C4FB019B0128EF
:2016800001D8022002E0411C02D10120687467E0A861DDF80CB0A96901935846FFF78EF99E
:2016A0000028EED0019B660A03EB00091FD0BBF80A209BF801009919914288BFD61A3346AC
:2016C0004A463946FEF700FE0028DED12B7C5A060BD5E869C9EB0000864206D94FF40072E9
:2016E000514607EB4020FFF7A7F976022AE0EA69914517D02B7C5B060BD5012351469BF8A3
:201700000100FEF7FAFD0028BFD12B7C23F040032B74039801234A4651464078FEF7D4FD24
:201720000028B2D1C5F81C906969C1F30801C1F50076A64228BF26462831324629443846E3
:20174000FFF77AF96B6933446B61D8F8003033443744C8F80030A41B7AE7204600E007209A
:2017600005B0BDE8F08F0000036823F0010303600023036043608360C36003612123436130
:20178000294B984217D0294B98421BD0284B984220D0284B984225D0274B98422AD0274BA4
:2017A00098422ED0264B984232D0264B984236D0254B984203D13D2243F8082C7047234BA2
:2017C000984204D14FF4746243F8202C7047204B984204D14FF4741243F8382C70471D4B62
:2017E000984204D14FF0746243F8502C70471A4B984203D1194A43F8642C7047184B984282
:2018000003D1184A43F87C2C7047174B984203D1164A43F8942C7047154B984203D14FF089
:201820003D5243F8AC2C7047106002402860024040600240586002407060024088600240BB
:20184000A0600240B860024010640240286402404064024058640240706402403D00002011
:2018600088640240400F0020A064024000003D20B86402400268134B10B513400C68CA6844
:2018800014434A6914438A691443CA6914430A6A14434A6A14438A6A14434A6B14438A6BF1
:2018A0002243134303604369CC6A23F007020B6B2343134343610B6943604B6883608B6896
:2018C000C36010BD3F801CF0036811B143F0010301E023F0010303607047036811B143F077
:2018E000200301E023F020030360704710B5084A084B094CA04294BF1846104611F0005F8C
:2019000021F0F02121F0821114BFC160816010BD00640240006002400F640240FFF7E6BFC7
:20192000044B1A69002ABFBF034A5A6002F188325A607047003C024023016745024A1369F2
:2019400043F0004313617047003C02400E4BDA68D20310D4DA68D1060FD4DA68D2050ED41D
:20196000DA6812F0E00F0CD1DB6813F0020F14BF082009207047012070470620704702204E
:2019800070470720704700BF003C024007B509238DF80730FFF7DAFF8DF807009DF80730AA
:2019A000012BF7D09DF8070003B05DF804FB000070B5064641B1012908D002290CBF4FF4F3
:2019C00000754FF4407503E00D4601E04FF48075FFF7DCFF09281ED10F4C236923F44073A9
:2019E0002361216929432161236923F0F8032361236943F002031E432661236943F48033AB
:201A00002361FFF7C3FF236923F002032361236923F0F803236170BD003C024070B5054629
:201A20000E46FFF7B3FF092813D10A4C236923F440732361236943F400732361236943F0EC
:201A4000010323612E60FFF7A1FF236923F00103236170BD003C02402DE9F0430F68002325
:201A60004FF0010E03260EFA03FC3CEA070230D15A00056806FA02F4E443254005600D7984
:201A8000D0F8008005FA02F9013D49EA0808012DC0F8008011D885682C4084604C79856845
:201AA000944025438560446824EA0C0444608C7945689C40A4B22C434460C46806FA02F57D
:201AC00024EA0504C460CD79C46805FA02F22243C2600133102BC6D1BDE8F0834FF6FF730A
:201AE00003600023037143718371C3717047018370474183704701F00703C90800EB81006B
:201B000010B59B00046A0F21994024EA01010162016A9A400A43026210BD00000C4B1A68DF
:201B2000002142F001021A6099601A6822F0A85222F410221A60074A5A60074AC3F88420D1
:201B40001A6822F480221A60D960C3F88C10704700380240103000240030002010B5029CF9
:201B600040EA046001435B08013B41EA821242EA0340014B586010BD00380240014B1860B7
:201B8000704700BF60004742034A936823F0F00318439060704700BF00380240034A936815
:201BA00023F4E05318439060704700BF00380240034A936823F4604343EAC000906070470A
:201BC00000380240014B1860704700BFE0114742044B1A6B09B1104301E022EA000018638E
:201BE000704700BF00380240044B1A6C09B1104301E022EA00001864704700BF00380240BA
:201C0000044B5A6C09B1104301E022EA00005864704700BF00380240044B1A6A09B1104329
:201C200001E022EA00001862704700BF00380240044B5A6A09B1104301E022EA0000586286
:201C4000704700BF003802404209012A074B01D11B6803E0022A0CBF1B6F5B6F00F01F003A
:201C600023FA00F000F00100704700BF00380240436881681943C36810B51943074C03687C
:201C8000626819430369194322F4FD4323F07F03027D0B431343636010BD00BF002C01408C
:201CA00000230375036043608360C36003617047014B1860704700BFA0802542014B1860DD
:201CC000704700BF002C0140094A036810B5936081684468D3680C43C1680C43016923F493
:201CE000FF6323F0070321430B43D36010BD00BF002C0140014B1869C0B27047002C014024
:201D000082B000230193034B03440193019B186802B07047142C01400949036810B54B627C
:201D200043688B62CB6A846823F0F702C3681C4303694069234303431343CB6210BD00BF84
:201D4000002C0140014BD3F880007047002C0140014B1860704700BF8C85254208B50121CA
:201D60004FF0FF30FFF764FF01214FF0FF30FFF753FF00214FF0FF30FFF75AFF00214FF086
:201D8000FF30FFF749FF034B93E80300854680F30888084700000108092808B503D00248D9
:201DA000FEF708FBFBE708BDD120000870B5ADF5823D98B0324801224FF40071FEF706FB76
:201DC0000020FEF70FFC08B12E4822E001222E498CA8FFF751FB08B12C481AE001222C49E3
:201DE00002A8FFF771FB002846D10DF58C6501AB4FF48032294602A8FFF70AFC08B12548C9
:201E000007E0019BB3F5FA7F02D313F0030203D02148FEF7ADFA2FE09B082049019355F86D
:201E2000224051F822001D4E84420FD01C48FEF79FFAFFF775FD02212020FFF7B9FDFFF766
:201E4000ABFF1848FEF794FA002403E001329A42E5D111E0019B9C4209D255F8241006EB71
:201E60008400FFF7DBFDFFF797FF0134F2E70E48FEF77EFAFFF762FD0DF5823D18B070BDA8
:201E800000040240D6200008DC200008DF200008E5200008F1200008F520000800000108A7
:201EA000FC20000803210008082100081FB5FFF735FE2120FFF7C8FE0028FAD00020FFF79F
:201EC00063FE0020FFF76AFE0020FFF771FE0020FFF778FE05230093002002236022082167
:201EE000FFF73CFE0120FFF749FE3920FFF7ACFE0028FAD001211F20FFF76AFE01210F2059
:201F0000FFF772FE012145F61100FFF779FE00244FF4C04302A90D4802938DF80C408DF82B
:201F20000D408DF80E408DF80F40FFF795FD084B4FF6FF125A60074AF02182F8231007228A
:201F40009C601A60FFF732FFFFF708FF0000024010E000E000ED00E070B4840746D0541ED1
:201F6000002A41D0CDB2034602E0621EE4B3144603F8015B9A07F8D1032C2ED9CDB245EA66
:201F800005250F2C45EA054519D903F110022646103E0F2E42F8105C42F80C5C42F8085C8E
:201FA00042F8045C02F11002F2D8A4F1100222F00F0204F00F041032032C13440DD91E46D5
:201FC0002246043A032A46F8045BFAD8221F22F003020432134404F003042CB1C9B21C4427
:201FE00003F8011BA342FBD170BC704714460346C2E700BF80F0FA0200020000900000002D
:020000040800F2
:2020000002000000000000000100000020200096EDDA8AF3E1D5929F8F8783818090989C5E
:202020009EF8EA9691EDCCDA2870745000645860206E546838305C6C7A48401044624C72FE
:202040007678222A2B2C3A3B3C3D3E3F5B5D7C7F00435545414141414345454549494941C2
:20206000414592924F4F4F5555594F554F9C4F9E9F41494F55A5A5A6A7A8A9AAABACADAE39
:20208000AFB0B1B2B3B4414141B8B9BABBBCBDBEBFC0C1C2C3C4C54141C8C9CACBCCCDCEDA
:2020A000CFD1D145454549494949D9DADBDCDD49DF4FE14F4F4F4FE6E8E85555555959EE8C
:2020C000EFF0F1F2F3F4F5F6F7F8F9FAFBFCFDFEFF4645525200434152442000303A004482
:2020E0004154412000303A6C616765722E62696E00494F20005452554E4320005550205590
:2021000050200050524720002E2E200024000000FFFFFFFFFFFFFFFFFFFFFFFFFFFFFFFFB6
:20212000FFFFFFFFFFFFFFFFFFFFFFFFFFFFFFFFFFFFFFFFFFFFFFFFFFFFFFFFFFFFFFFFBF
:20214000FFFFFFFFFFFFFFFFFFFFFFFFFFFFFFFFFFFFFFFFFFFFFFFFFFFFFFFFFFFFFFFF9F
:20216000FFFFFFFFFFFFFFFFFFFFFFFFFFFFFFFFFFFFFFFFFFFFFFFFFFFFFFFFFFFFFFFF7F
:20218000FFFFFFFFFFFFFFFFFFFFFFFFFFFFFFFFFFFFFFFFFFFFFFFFFFFFFFFFFFFFFFFF5F
:020000040800F2
:020000040801F1
:2000000000000220810A01080000000000000000000000000000000000000000000000002A
:2000200000000000000000000000000000000000000000000000000000000000C10A0108EC
:200040000000000000000000000000000000000000000000000000000000000000000000A0
:20006000000000000000000000000000000000000000000000000000000000000000000080
:20008000000000000000000000000000000000000000000000000000000000000000000060
:2000A000000000000000000000000000000000000000000000000000000000000000000040
:2000C0000000000000000000000000000000000000000000190B01080000000000000000F3
:2000E000000000000000000000000000000000000000000000000000000000000000000000
:200100000000000000000000000000000000000000000000000000000000000000000000DF
:200120000000000000000000000000000000000000000000000000000000000000000000BF
:2001400000000000000000000000000000000000000000000000000000000000000000009F
:2001600000000000000000000000000000000000000000000000000000000000000000007F
:2001800000000000000000000000000000000000000000000000000000000000000000005F
:2001A00000000000000000000000000000000000000000000000000000000000000000003F
:2001C000844641EA000313F003036DD1403A41D351F8043B40F8043B51F8043B40F8043B54
:2001E00051F8043B40F8043B51F8043B40F8043B51F8043B40F8043B51F8043B40F8043B03
:2002000051F8043B40F8043B51F8043B40F8043B51F8043B40F8043B51F8043B40F8043BE2
:2002200051F8043B40F8043B51F8043B40F8043B51F8043B40F8043B51F8043B40F8043BC2
:2002400051F8043B40F8043B51F8043B40F8043B403ABDD2303211D351F8043B40F8043B52
:2002600051F8043B40F8043B51F8043B40F8043B51F8043B40F8043B103AEDD20C3205D362
:2002800051F8043B40F8043B043AF9D2043208D0D2071CBF11F8013B00F8013B01D30B88B4
:2002A00003806046704700BF082A13D38B078DD010F003038AD0C3F10403D21ADB071CBFD4
:2002C00011F8013B00F8013B80D331F8023B20F8023B7BE7043AD9D3013A11F8013B00F8D3
:2002E000013BF9D20B7803704B7843708B7883706046704700000000000000000000000038
:2003000090F800F06DE9024520F007016FF0000C10F0070491F820F040F049804FF0000465
:200320006FF00700D1E9002391F840F000F1080082FA4CF2A4FA8CF283FA4CF3A2FA8CF31B
:200340004BBBD1E9022382FA4CF200F10800A4FA8CF283FA4CF3A2FA8CF3E3B9D1E9042395
:2003600082FA4CF200F10800A4FA8CF283FA4CF3A2FA8CF37BB9D1E9062301F1200182FA31
:200380004CF200F10800A4FA8CF283FA4CF3A2FA8CF3002BC6D0002A04BF04301A4612BA25
:2003A000B2FA82F2FDE8024500EBD2007047D1E9002304F00305C4F100004FEAC50514F0E8
:2003C000040F91F840F00CFA05F562EA05021CBF63EA050362464FF00004A9E7003018BF4C
:2003E00001207047003018BF01207047F8B50E4698B99D181446AC420DD004272146304612
:2004000000F0E4FA18B1013FF8D10120F8BD06F500760134EFE70020F8BD0420F8BD2DE926
:20042000F0470E4690469946F0B904460C254C4517D2C4EB090292B2954228BF154604279C
:2004400004EB080A2A465146304600F015FA20B1013FF7D10120BDE8F08706EB45262C443D
:20046000E5E70020BDE8F0870420BDE8F08720B9002914BF04200020704704207047000089
:20048000054B064A1B7811888342054B186801D002F015B802F015B81E0000201C00002032
:2004A00020000020F7B502AD002345F8043D0C4B0C4F1E6800901C462946684600F048F889
:2004C000431C0BD023689E42FCD800283B68D4BF002001201E44FFF7D3FFEDE703B0F0BDA6
:2004E000840200200000002008B504462046FFF7D9FF0248FFF7D6FFF8E700BF0831010806
:20050000F7B5064668460D461746002401F0CEFF0123694630468DF8043000958DF8054042
:200520008DF806408DF8074001F07EFF054B1F70054B1E60054B20461D80FFF7A1FF03B06D
:20054000F0BD00BF1E000020200000201C0000208B7810B5082B52D8DFE803F00534383AEB
:200560003C4F4B4D4F0003681A78002A49D00023272A0B701BD95A2A04D8234B1A4412F8B0
:20058000283C07E0A2F16104182C10D81E4B1A4412F8483C03F0C002C02A13BF5A0906229B
:2005A0009B00013216BFDB000A700A70DBB24B70036801330360087808B1042303E0012318
:2005C0008B7010BD02238B70002010BD0323FAE7002001E0087808B9887010BD4B781A0655
:2005E0004CBF062205225B0001388A704B700870EAE7072302E0082300E004238B700120B5
:2006000010BD4FF0FF3010BD0B31010837B5012303FA01F20092022205460C468DF8042091
:200620008DF80520694600228DF806208DF8073001F0FAFE0C222146284601F044FF03B005
:2006400030BD000070B512F0020F86B002F001060CBFB301C02303930023029004930546B7
:200660004FF4806301A801911446059302F06AF8002E114A114814BF4521C521013A436BE9
:2006800016D00B42FAD00D4A0D499163620758BF23F0010340F23F221A404AB914F0100021
:2006A00008D002F065F8281A18BF4FF0FF3001E04FF0FF3006B070BD62E31600002C014092
:2006C000FF07C00008B51522FFF7BCFF58B902F055F820F4FF5323F01F032BB980F480707C
:2006E000C0F3002008BD08BD4FF0FF3008BD000038B5084B0D461988044609043720FFF792
:20070000E1FF002805DB29462046BDE83840FFF7D9BF38BD240000202DE9F041062186B094
:2007200005465048504CFFF771FF08214D48FFF76DFF09214B48FFF769FF05214B48FFF7EA
:2007400065FF07214948FFF761FF0F214748FFF75DFF684601F0E2FF762368468DF8143085
:2007600001F0C4FF032001F0E7FF012001F0DEFF0022114610462270FFF764FF00286BD1BE
:2007800005224FF4ED710820FFF75CFF30B901F0F5FFC0F30B00B0F5ED7F5AD0344F42F29A
:2007A0001276013E58D00021372094F80080FFF789FF002850DBB8F1000F14BF39464FF4A8
:2007C000801101222920FFF73DFF002844D101F0D5FF0028E5DA10F0804008BF20700722C1
:2007E00000210220FFF72EFF0446A8BB014605220320FFF727FF00282EDB204601F0BEFFF4
:2008000000F47E43B3F5806F26D11A4E8DF81440000C3080684601F069FF318807200904A4
:20082000FFF750FF002817DB4FF400711020FFF749FF044680B98DB102210620FFF758FFE0
:20084000002809DB4FF400636846039301F04EFF04E001232370A1E74FF0FF34204606B0B3
:20086000BDE8F0810000024026000020000402400000104024000020F0B54C4B1B7891B0F0
:2008800006460C46154623B9B1F5000F80F087804C02474F39880D200904FFF713FF002848
:2008A000F8DC012D29D121461820FFF70BFF002879D14049404801F0AFFD3F4801F0D2FC37
:2008C00000213D4801F07EFD4FF0006301933B4B0293402304934FF480536F020022089377
:2008E00016F0030F4FF480630793039606924FEA97030BD14FF4804208E029461720FFF7B7
:20090000F7FE00284FD121461920CEE705934FF440330B930423002601240C9301A94FF45B
:200920000013254809920F930A960D940E9601F01FFD2021204801F04EFD21461E4801F065
:2009400041FD1F4B019301A890230393029704960596069401F01EFF204601F037FF194A03
:20096000536B40F23F20184018B9DB05F8D5044601E04FF0FF3400210F4801F023FD114BD0
:20098000114A9A6324B100210C20FFF79BFE06E0012D07D921460C20FFF794FE02E04FF01E
:2009A000FF3000E0204611B0F0BD00BF260000202400002000003D20A0640240802C01407B
:2009C00080F0FA02002C0140FF07C000F0B5274C87B006460F4621880D200904FFF772FE3F
:2009E0000028F8DC224B1B781BB9B7F5000F39D27F02204D0FCD6C460FC495E8030084E826
:200A00000300684601F0C6FE39461120FFF75AFE002829DB184D80246B6B40F23F221A407A
:200A2000B2B99A020DD5002C12DD01F0C9FE030A30707370030C000EB370F070013C043653
:200A4000EAE75B05E8D5201C18BF0120404201E04FF0FF30084B094A9A6328B100210C20DA
:200A6000FFF730FE4FF0FF3007B0F0BD2400002026000020F0300108002C0140FF07C0009A
:200A8000084B094A9A600948094A0A49121AFFF797FB0948094A0021121A02F0B1FA02F08B
:200AA0000FFA00BF00ED00E000000108000000201C000020383401081C00002088020020E1
:200AC000684620F007018D4601B5044ABDE801401368013313608546704700BF840200208A
:200AE00037B5012303FA01F20092022205460C468DF804208DF80520694600228DF80620D4
:200B00008DF8073001F090FC07222146284601F0DAFC03B030BD0000684620F007018D469E
:200B200019B540F22551104801F0E1FE012817D10D480E4C01F0BFFE0D4A246811684B1CE6
:200B4000A34228BF1B1B0B4C24689C420BBF0A4A0A4C13682468C0B20CBF013360541360BF
:200B6000BDE81940854670470010014038000020300000202C0000203C0000203400002000
:200B80002DE9F0411A4D1B4E2C681B4FDFF87480204434683C60AE46B4FBF1F701FB1747F4
:200BA000D8F80050AC4203D9144A15682D1B06E02D1B954203D2DEF800C06045F0D8AB425E
:200BC00028BF2B46FA18914298BFB2FBF1F3069A9CBF4B43DB1B1360084A126823449342F6
:200BE00028BF9B1A3360064B18682044BDE8F08184020020280000202C00002038000020E9
:200C0000340000203000002030B5174B1960174B87B004460F2116481A60FFF761FF03210B
:200C20001448FFF75DFF02A801F02EFE0294124C02A9204601F0D0FD0121204601F02FFED6
:200C4000002301930125252301A88DF804308DF8075001F06DFE2A4640F22551204601F066
:200C60002EFE07B030BD00BF34000020380000200000024000040240001001402DE9F74F04
:200C8000446801924FF0000C4FF0FF380668019A964280F086818D5D002D00F08281392D8C
:200CA0001ED8302D80F02981202D00F0768109D8092DC0F088810A2D40F26F810D2D00F040
:200CC0006C8180E12C2D00F0F6802D2D00F01581222D40F0788106F1010EC0F800E095E09C
:200CE000662D00F00A810AD85B2D15D05D2D42D03A2D40F068814568013D85604DE1742DDC
:200D000000F0FB8003D86E2D00F0F7805BE17B2D02D07D2D2FD056E10134002B00F03D81E7
:200D2000D0F804900C9F4F4540F2568109F10107476087684FEA091B7A1C03EB0B0A18BFAA
:200D400003EB071ECAF80CC018BFDEF80C70CAF8048018BF0137CAF8088018BFCEF80C7011
:200D60007B2D14BF0225012503F80B50CAF80460C0F8089011E1002B00F00F81476807F19B
:200D8000FF3E07F180577D2D07F1FF3714BF4FF002094FF0010903EB0717BEF1000F14DB50
:200DA0007D6801350DD0BD686A1C0AD197F800A0CA4540F0088101368560BE6003EB0E1672
:200DC00010E00EF1FF3E103FE7E7BEF1FF3F40F0E480F8E00EF1FF3EBEF1FF3FA6F110069B
:200DE00000F0DB8075680135F4D0B5680135F1D1C0F808E0D1E0CD5D002D00F0AA80222DAB
:200E000009D05C2D1CD00568013505600768019ABA42F0D89DE0002B00F0B48045680C9A8F
:200E2000AA4240F2D8806E1C2D0146605E194FF003025A55C6F804E0B760C6F80CC0A1E0B0
:200E4000019A7D1CAA42DED905604D5D662DDAD008D82F2DD7D001D8222D07E05C2DD2D052
:200E6000622D03E0722DCED002D86E2D53D1CAE7742DC8D0752D4ED1023707604FF0040993
:200E80000768019ABA4203D80568013D0560BAE7CD5D002DF8D0A5F1300ABAF1090F04D931
:200EA00025F02005413D052D35D80137B9F101090760E5D1E8E7002B6FD085686A1C6CD04A
:200EC0002D015D5D013D012D67D94668771E03EB0616002F61DB16F8105C013D012D09D8FF
:200EE00056F80C5C013505D056F8085C013501D1876052E0013F103EEBE7D3B185686F1C02
:200F000017D02D015F195D5D012D5CD0032D10D1FD6875B157E0066055E04F5DCFB1202F47
:200F200019D00FD8092F09D2203F5E2FF3D8013505600568019AAA42EFD80AE00A2F0AD9BB
:200F40000D2F04E05D2F06D07D2F04D02C2FEBD101E006603CE09BB147680C9ABA423AD965
:200F600007F1010E3F01C0F804E003EB070E4FF00402DA55CEF80460CEF80850CEF80CC03D
:200F8000013D056085686A1C04F1010405D023B103EB0516F5680135F5600568013505609F
:200FA00074E69BB14268511E03EB021300290DDB53F80C2C013203D053F8082C013207D04C
:200FC0000139103BF2E76FF0010007E0204605E06FF0020002E006604FF0FF3003B0BDE8B2
:200FE000F08F0023036043604FF0FF338360704742884378007843EA022340EA03207047EB
:2010000043690239023B99423DBF4389806A01FB030000207047026810B58AB111460B4637
:2010200011F8014B202C09D93A2CF8D1511C8B4206D11278302A03D101330360002010BDB1
:201040004FF0FF3010BD38B50D46044618B900232B60092038BD0368002BF8D01A78002A14
:20106000F5D0D98882889142F1D15878FFF7B6F910F00100EBD123682B6038BD01380A44E7
:2010800011F8013B00F8013F9142F9D17047CA7E8B7E032843EA022301BF487D0A7D42EA79
:2010A000002243EA024318467047C2F307238A76CB760378032B01BF120C0A75120A4A7586
:2010C0007047F8B5C56A00F13007044601232A4639464078FFF7A3F9A0B9236AA269E0706D
:2010E000EB1A934201D30020F8BDA678012EFAD9A36960781D442A4601233946FFF78FF977
:20110000013EF3E70120F8BDC3780BB1FFF7D9BF18467047C36A8B4270B506460D4611D0A7
:20112000FFF7F2FF044670B92A46012306F130017078FFF75BF900281CBF4FF0FF350124CC
:20114000F56200E00024204670BD000038B50023C3704FF0FF33C3620446FFF7DBFF014667
:20116000E8B994F82F2294F82E3243EA02234AF65522934215D104F16600FFF739FF0B4D60
:2011800020F07F40A8420ED004F18200FFF730FF20F07F40A84214BF0220002038BD042035
:2011A00038BD032038BD084638BD00BF464154002DE9FF4100230B600F461546FFF72BFF91
:2011C000061EC0F226819C4B53F82640002C00F022813C60237805F0FE0583B16078FFF70A
:2011E000FDF8C7070BD4002D00F0178100F0040303F0FF00002B00F01B810A2018E10023B2
:20120000F0B223706070FFF7EDF8C10700F107810DB14207F1D400212046FFF797FF0228A4
:201220001FD104F5FB75002115F8040C10B12846FFF7DEFE4DF821000131042905F1100546
:20124000F2D100265DF8265035B129462046FFF77DFF012801D80CE003200136042EF1D171
:20126000DFE0042800F0E080012801D90D20DFE0002594F83C2094F83B3043EA0223B3F546
:20128000007FF3D194F8471094F8463053EA012104D104F15400FFF7ABFE014694F8408077
:2012A000A16108F1FF33012B84F80280DED894F83D60B3B26381002BD8D0731E3342D5D130
:2012C00094F8413094F8427043EA07273B072781CCD194F8440094F8433053EA002003D1F1
:2012E00004F15000FFF784FE94F83F2094F83E3053EA0222BAD001FB08FE02EB1713734491
:201300009842B3D3C01AB0FBF6F00028AED040F6F576B04200F102082A442B441BD94FF6B8
:20132000F576B04240F282802262A36294F85B2094F85A30C4F8148053EA0223E56195D118
:20134000002F93D104F15C00FFF752FE032660624FEA880315E00126C4F81480E56122627E
:20136000A362002F82D0022E4FEA480318BF4344724418BF08F0010862621CBF08EB53035F
:20138000012603F2FF13B1EB532FFFF46FAF4FF0FF332361E360032E4FF0800323712FD131
:2013A00094F8612094F8603043EA0223012B27D1691C2046FFF7AEFE10BB94F82F2294F8CD
:2013C0002E32207143EA02234AF65522934217D104F13000FFF70CFE184B984210D104F51A
:2013E0000570FFF705FE164B984209D104F50670FFF7FEFD206104F50770FFF7F9FDE060ED
:20140000104A2670138801339BB21380E38000200EE00B200CE00C200AE0284608E0032016
:2014200006E004287FF422AF012001E0022693E704B0BDE8F08100BF44000020525261417F
:2014400072724161400000200129F8B506460C4652D9436999424FD20378022B29D0032B8F
:2014600039D0012B48D101EB5105016A01EB5521FFF750FE10B14FF0FF30F8BD6F1C316AC1
:20148000C5F30805354401EB5721304695F83050FFF740FE0028EED1C7F308073E44E307D7
:2014A00096F8300045EA00204CBF0009C0F30B00F8BD016A01EB1421FFF72CFE0028DAD119
:2014C000640004F4FF74331993F8310093F8303043EA0020F8BD016A01EBD411FFF71AFEFE
:2014E0000028C8D1A00000F4FE7030303044FFF77FFD20F07040F8BD0120F8BD826838B5C1
:20150000002305460468036162B92378022B01D9636A33B923890BB9022038BD636AAB61B7
:2015200014E01A46638963B911462868FFF78CFF431C024612D00128EED963699842F3D302
:20154000EAE711462046FFF75BFDA861AB696A61002BE1D03034EC61002038BD012038BD0F
:2015600001292DE9F04105460C46164675D94369994272D20378022B3CD0032B4CD0012BBE
:201580006BD101EB5107016A01EB5721FFF7C2FD0146002862D107F10108C7F308072F4468
:2015A00014F001041FBF97F8303003F00F0343EA0613DBB208BFF3B287F83030296A01237B
:2015C00001EB5821EB702846FFF7A4FD0146002844D1C8F30808A84414B1C6F3071606E08A
:2015E00098F83030C6F3032623F00F031E4388F830602FE0016A01EB1421FFF78BFD014623
:2016000060BB640004F4FF742B1983F83060C6F3072683F831601DE0016A01EBD411FFF770
:2016200079FD0146D0B9A40004F4FE7404F130072F443846FFF7DCFC26F0704600F07040FF
:2016400006432C44330A84F830607B70330C360EBB70FE700123EB7000E002210846BDE80C
:20166000F0812DE9F041804605680F4631B9EE68A6B16B699E4228BF012610E02846FFF77D
:20168000E3FE012845D9431C03D14FF0FF30BDE8F0816B6998423DD33E4600E001263446A8
:2016A0006B6901349C4205D3012E02D80020BDE8F08102242146D8F80000FFF7C5FE30B135
:2016C000012826D00130E0D0B442E9D1EEE74FF0FF3221462846FFF743FFC0B947B96A69BC
:2016E0002B69EC60023A93420AD2013B2B6107E0224639462846FFF733FF0028EFD006E024
:201700002B7943F001032B712046BDE8F0810128BBD00120BDE8F08183692DE9F047054667
:201720008946002B71D007692037B7F5001F6CD2C7F308080468B8F1000F5ED141690133A3
:20174000836131B92389B3EB571F56D80023AB615BE06389013B13EA57234ED12046FFF749
:2017600073FE0128064602D80220BDE8F087421C02D10120BDE8F0876369984237D3B9F1A3
:20178000000FE3D069692846FFF76BFF064600283ED00128E8D0431CEBD02046FFF7B4FC5E
:2017A0000028E6D104F1300304F50C7203F8010B9342FBD131462046FFF722FC4FF00009CA
:2017C000E0624FF0010A638999450CD284F803A02046FFF776FC0028CBD1E36A013309F1A9
:2017E0000109E362EFE7E36AC9EB0303E3626E6131462046FFF704FCA86108F13008444414
:201800002F61EC610020BDE8F0870420BDE8F0870720BDE8F08700002DE9F0470668044627
:201820000B782F2B0D4601F10101F9D05C2BF7D00023A3602B781F2B01D9694F5BE0236A00
:201840008022DA722046BDE8F047FFF757BE03F8011B9A42FBD1002105F1FF3A8E464FF02B
:20186000080C0B461AF8012F202A0EF1010E48D8AE449EF80080B8F12F0F75460EF1010E91
:20188000F7D0B8F15C0FF4D0212A34BF04220022002900F082800178E52904BF0521017027
:2018A000BCF1080F04BF9B00DBB203F00301012903F00C0308BF42F01002042B08BF42F023
:2018C0000802C2722046D4F80080FFF717FE002831D0236ADB7A002854D15A077DD4A379E7
:2018E000DB0657D521693078C1F3080130313144FFF7CDFBA060206A202100F10B02034646
:20190000A5E72F2AB4D05C2AB2D02E2A5CD08C4543D912F0800F18BF803ADFF8C8901CBFB9
:20192000BA5C43F0030319F8018FB8F1000F37D04245F8D131E0A1694046FFF7EBFB002803
:20194000C7D1E3691A78DAB1DA7A02F03F02A271DA7A11070FD4216A03F10B0E13F8012BCE
:2019600011F801CB7345CCEB020202D0002AF5D001E0002AADD000212046FFF7CDFEA6E701
:201980000420A6E7042828D113F0040F08BF0520BDE8F0870520BDE8F0870620BDE8F087D0
:2019A000A2F14108B8F1190F02D843F0020308E0A2F16108B8F1190F9EBF203A43F00103C5
:2019C000D2B2425401314DE7BCF1080FE5D19B006146DBB24FF00B0C44E7BDE8F08700BFE2
:2019E0004D3101083D31010838B5044605680420A169E9B12846FFF78DFBD8B9E3691A7822
:201A0000DAB1DB7AE52A03F03F03A37109D02E2A07D00F2B05D023F02003082B01D000201D
:201A200038BD00212046FFF777FE0028E0D001E00028F4D00023A36138BD0420FAE770B5D4
:201A400005460668FFF75AFD044638BBA9693046FFF760FB044608BBEB691B78E52B0AD18B
:201A6000A9693046FFF756FB0446D0B9EB69014603F1200206E0002BF2D001212846FFF7BA
:201A80004BFEE1E703F8011B9A42FBD10B22296AE869FFF7F3FA0123F37002E0042C08BF22
:201AA0000724204670BDF8B50D46012D0746114601D80220F8BD046863699D42F9D22AB129
:201AC0004FF0FF322046FFF74BFD00BB29463868FFF7BAFC064608B90020F8BD0128E8D0B9
:201AE000411C13D0002229462046FFF739FD70B923695A1C05D001332361237943F00103F8
:201B0000237163699E423546E0D3E5E70120F8BD10B50446FFF7F8FA002851D12378032BAB
:201B200046D12379012B43D104F1300104F50C720B4603F8010B9342FBD1552384F82E32C8
:201B4000AA2384F82F32522384F8303084F83130612384F8323084F81732236984F8183234
:201B6000412284F8332084F816221A0A84F819221A0C1B0E84F81B32E36884F81A221A0A65
:201B800084F81D221A0C84F81E22E26984F81C3272201B0E013284F8140284F8150284F804
:201BA0001F32E26201236078FEF739FC00232371002211466078FEF75AFC003018BF0120EF
:201BC00010BD00001FB5019004A8009140F8041D1446FFF720FA011E14DB0D4B53F8210001
:201BE00008B100220270019808B10022027043F8210050B1012C07D1002201A96846FFF7E0
:201C0000D7FA02E00B2000E0002004B010BD00BF440000202DE9F04391B015460191044681
:201C2000002800F09180002302F01F060360324603A901A8FFF7BCFA002840F08C80039B63
:201C40000793019904AB07A80F93FFF7E5FD28B90F9B93F90B30002BB8BF062015F01C0F2E
:201C60004DD048B1042876D107A8FFF7E8FE002871D146F0080606E09DF8223013F0110FB2
:201C800068D16F0762D4350746D50E9BDDF80C8000258F21482219745A749D73DD730E9B5B
:201CA00019765A769D75DD750E9B2022DA72DDF8389098F800004946FFF7E9F92A460746D9
:201CC00049464046FFF7F1F90E9B1D775D779D77DD77039B0122DA70E7B12A46394607A855
:201CE000D3F82C80FFF7DFFE002834D141460398FFF710FA039B013FDF6048B12BE050BB1F
:201D00009DF82230D80623D4A90701D5DA0721D4330701D546F02006039D0E9FEB6A236218
:201D2000676228783946FFF7B2F9A06007F11C00FFF75EF9E060002060742674EB886061B7
:201D4000E0612560A38006E0092004E0082002E0042000E0072011B0BDE8F0832DE9F04F44
:201D6000984685B000230F46C8F8003003A905461446FFF768F9002840F09880687C0028C4
:201D800040F094802B7CD80740F18F80EB686869181A844228BF044605F1280A002C00F0A8
:201DA00082806A69C2F30803002B63D1039B5B89013B13EA522312D10AB9A86805E0A96952
:201DC00028680193FFF740FB019B012801D8022002E0411C02D10120687467E0A861DDF8BA
:201DE0000CB0A96901935846FFF70AF90028EED0019B660A03EB00091FD0BBF80A209BF8A2
:201E000001009919914288BFD61A33464A463946FEF7ECFA0028DED12B7C5A060BD5E86993
:201E2000C9EB0000864206D94FF40072514607EB4020FFF723F976022AE0EA69914517D005
:201E40002B7C5B060BD5012351469BF80100FEF7E6FA0028BFD12B7C23F040032B74039887
:201E600001234A4651464078FEF7C0FA0028B2D1C5F81C906969C1F30801C1F50076A642F9
:201E800028BF26462831324629443846FFF7F6F86B6933446B61D8F8003033443744C8F886
:201EA0000030A41B7AE7204600E0072005B0BDE8F08F2DE9F04F9B4685B000238946CBF86C
:201EC000003003A904461646FFF7BDF8002840F0AC80607C002840F0A880237C990740F185
:201EE000A3806369F34228BFDE4304F128030193B6B16369C3F30802002A73D1039AB2F85A
:201F00000A8008F1FF3818EA53281CD11BB9A06860B9014600E0A1692046FFF7A2FB28B99D
:201F2000237C43F02003237400207EE0012801D1022002E0421C02D10120607475E0A36812
:201F4000A06103B9A060237C5B060CD50398E269019940780123FEF762FA0028ECD1237CB2
:201F600023F040032374DDF80CA0A1695046FFF747F80028DCD0750A08EB000721D0BAF82E
:201F80000A309AF8010008EB05029A4288BFC8EB03052B463A464946FEF741FA0028CBD128
:201FA000E169C91B8D420AD94FF4007209EB41210198FFF763F8237C23F0400323746D0251
:201FC00022E0E3699F420CD06269E3689A4208D201233A4601999AF80100FEF707FA00283B
:201FE000AAD1E7616069C0F30800C0F50075B54228BF354628302A4649462044FFF73EF830
:020000040801F1
:20200000237C43F0400323746369E2682B4463619A422CBFE260E360DBF800302B44A94420
:20202000CBF80030761B63E7072005B0BDE8F08F73B501A90646FFF706F8002840D1337CD8
:2020400003F0200202F0FF00002A39D05B060CD50198F2694078012306F12801FEF7DFF948
:2020600068BB337C23F040033374316A0198FFF751F8044620BB756AEB7A43F02003EB7202
:20208000B26830682946FFF710F8F3682B771A0A6A771A0C1B0EEB778F232B760198AA7761
:2020A00048236B760123AC75EC75AC74EC74C370FFF72EFD337C23F02003337400E00120CD
:2020C00002B070BD13B50446FFF7B2FF28B901A92046FEF7B8FF00B9206002B010BD70B5EE
:2020E00098B00222019002A901A8FFF761F8029B0693002840D103AB01990E9306A8FFF744
:202100008BFB002838D10E9B93F90B30002B18DB9DF81E60F20716D4029D0D992878FEF7AA
:20212000B6FFF306044610D50FA80F951194FFF7E5F908BB0FA8FFF757FC20B1042804D05A
:202140001AE0062018E0072016E0069D0C992846FEF7E0FF80B90D9BE5221A700123EB70CF
:202160001CB90298FFF7D4FC06E00246214606A8FFF799FC0028F4D018B070BD2DE9F74F1F
:20218000884601A905469146FEF75DFF002866D1687C002863D1B8F1000F55D0EB68002B5A
:2021A00052D12B7C9A074FD5019A5389D6685B02581E00EA0800B8FBF3F300280CBF1C4628
:2021C0005C1C012E04D953699E4228BF022600E00226B24637464FF0000B39462868FFF704
:2021E00033F9019A536901379F4228BF0227012826D0431C26D020B90BF1010B5C4503D169
:2022000005E0BA464FF0000BB742E6D11CE0B9F1000F04D10AF1FF33D36048461FE05646CC
:20222000A4B1012C14BF721C4FF0FF3231460198FFF796F998B9019B013CDE600136EFE741
:2022400002200CE001200AE0072008E02B7CC5F808A043F02003C5F80C802B74204603B0F3
:20226000BDE8F08F036823F0010303600023036043608360C360036121234361294B98428C
:2022800017D0294B98421BD0284B984220D0284B984225D0274B98422AD0274B98422ED00F
:2022A000264B984232D0264B984236D0254B984203D13D2243F8082C7047234B984204D1C0
:2022C0004FF4746243F8202C7047204B984204D14FF4741243F8382C70471D4B984204D157
:2022E0004FF0746243F8502C70471A4B984203D1194A43F8642C7047184B984203D1184AF0
:2023000043F87C2C7047174B984203D1164A43F8942C7047154B984203D14FF03D5243F8EA
:20232000AC2C7047106002402860024040600240586002407060024088600240A060024038
:20234000B860024010640240286402404064024058640240706402403D000020886402401A
:20236000400F0020A064024000003D20B86402400268134B10B513400C68CA6814434A695D
:2023800014438A691443CA6914430A6A14434A6A14438A6A14434A6B14438A6B2243134335
:2023A00003604369CC6A23F007020B6B2343134343610B6943604B6883608B68C36010BD56
:2023C0003F801CF0036811B143F0010301E023F0010303607047036811B143F0200301E058
:2023E00023F020030360704710B5084A084B094CA04294BF1846104611F0005F21F0F02163
:2024000021F0821114BFC160816010BD00640240006002400F640240FFF7E6BF014BC0B220
:2024200018707047003C02402DE9F0430F6800234FF0010E03260EFA03FC3CEA070230D14E
:202440005A00056806FA02F4E443254005600D79D0F8008005FA02F9013D49EA0808012D57
:20246000C0F8008011D885682C4084604C798568944025438560446824EA0C0444608C79B8
:2024800045689C40A4B22C434460C46806FA02F524EA0504C460CD79C46805FA02F2224322
:2024A000C2600133102BC6D1BDE8F0834FF6FF7303600023037143718371C3717047018314
:2024C00070474183704701F00703C90800EB810010B59B00046A0F21994024EA0101016248
:2024E000016A9A400A43026210BD00000C4B1A68002142F001021A6099601A6822F0A852E9
:2025000022F410221A60074A5A60074AC3F884201A6822F480221A60D960C3F88C10704743
:20252000003802401030002400300020024B00221A701870704700BF0238024010B5029C97
:2025400040EA046001435B08013B41EA821242EA0340014B586010BD00380240014B1860CD
:20256000704700BF60004742034A936823F0030318439060704700BF00380240034A936818
:2025800023F0F00318439060704700BF00380240034A936823F4E05318439060704700BFA7
:2025A00000380240034A936823F4604343EAC00090607047003802401D4A936803F00C032D
:2025C000042B10B503D0082B03D01A4B18E01A4B16E05168536811F4800F03F03F03516880
:2025E00014BF154A134AB2FBF3F3114A5268C2F30142C1F3881101324B435200B3FBF2F3B9
:202600000B4A036093680D49C3F30313CC5C0368E34043609468C4F382240C5D23FA04F4B5
:2026200084609268C2F342328A5CD340C36010BD003802400024F40000127A000400002068
:20264000014B1860704700BFE0114742044B1A6B09B1104301E022EA00001863704700BF07
:2026600000380240044B1A6C09B1104301E022EA00001864704700BF00380240044B5A6C90
:2026800009B1104301E022EA00005864704700BF003802404209012A074B01D11B6803E094
:2026A000022A0CBF1B6F5B6F00F01F0023FA00F000F00100704700BF0038024007B50023F3
:2026C00001933120FFF7E6FF019B01330193019BB3F5A04F01D00028F3D03120FFF7DAFFC7
:2026E000003018BF012003B05DF804FB436881681943C36810B51943074C0368626819438B
:202700000369194322F4FD4323F07F03027D0B431343636010BD00BF002C0140002303758C
:20272000036043608360C36003617047014B1860704700BFA0802542014B1860704700BF77
:20274000002C0140094A036810B5936081684468D3680C43C1680C43016923F4FF6323F009
:20276000070321430B43D36010BD00BF002C0140014B1869C0B27047002C014082B00023B9
:202780000193034B03440193019B186802B07047142C01400949036810B54B6243688B62AF
:2027A000CB6A846823F0F702C3681C4303694069234303431343CB6210BD00BF002C014025
:2027C000014BD3F880007047002C0140014B1860704700BF8C8525427FB5038ACA889BB22C
:2027E00023F440531343038283890E469BB223F4B053898823F00C0233890B4371890B4309
:202800009BB213438381838AB2899BB223F440731343838204466846FFF7CEFE194B9C425B
:2028200003D003F580639C4201D1039D00E0029DA389316813F4004F4FF0190202FB05F2B2
:2028400014BF4D008D00B2FBF5F5A2896426B5FBF6F000010109120406FB115307D5D900AE
:202860003231B1FBF6F202F00702104306E01A013232B2FBF6F303F00F03184380B22081E5
:2028800004B070BD001001404FF4165303600C2200238380C3800381428183817047838952
:2028A00019B19BB243F4005303E023F400531B041B0C838170478088C0F30800704701238B
:2028C00010B5C1F342149C4201F01F0103FA01F101D10C3003E0022C0CBF10301430036872
:2028E0000AB1194301E023EA0101016010BD012310B5C1F3421401F01F029C4203FA02F2CF
:2029000001D1838903E0022C0CBF038A838A9BB21340028892B243B10123090A03FA01F1DB
:202920000A4214BF1846002010BD184610BD0000C278037830B51AB3174A4578D168C94338
:20294000C1F30221C1F10402D2B205FA02F2D4B20F220A4181780A40224303F1604303F538
:2029600061431201D2B283F8002303780122590903F01F0302FA03F3084A42F8213030BDAD
:202980005A09012103F01F0301FA03F32032034941F8223030BD00BF00ED00E000E100E049
:2029A0002DE9F0474D6800278146884605443C464FF00A0AD8F80820C9EB05039A4213DDBB
:2029C00015F8016B2D2E03D1D8F804209A4209D0303EF3B2092B02D90748FDF785FD0AFBBA
:2029E0000464E7E70127E5E717B16042BDE8F0872046BDE8F08700BF6E32010808B5435CE1
:202A0000542B0CD002D8462B07D003E0662B04D0742B04D00348FDF767FD002008BD0120D5
:202A200008BD00BF6E3201082DE9F843814610464F688C680D4616469846FDF761FCE41B73
:202A400084420DD1224609EB0701304600F026FB30B92B7C434506D00448FDF745FD02E095
:202A60000020BDE8F8830120BDE8F8836E320108F0B5ADF5F13D8DB03948FFF730FB0622B0
:202A8000374902A8FFF7C6F810B13648FDF72CFD354F322600248CAD002307FB04F2334C29
:202AA000144445F823400133B3F5F04FF5D101AB4FF4F032294602A8FFF7FBF910B12C48F4
:202AC000FDF712FD019BB3F5F03F02D02948FDF70BFD013EE0D102A8FFF7F4FA0122204937
:202AE00002A8FFF797F810B12348FDF7FDFC1E4F3224002601AB4FF4F032294602A8FFF785
:202B00002DF910B11D48FDF7EFFC019BB3F5F03F02D01B48FDF7E8FC3346002207FB03F179
:202B2000124B0B4455F822108B4214D10132B2F5F04FF3D11E46013CDCD10948FFF7CFFA7D
:202B400010B11048FDF7D0FC0F48FDF7CDFC0DF5F13D0DB0F0BD0D48FDF7C6FCEBE700BF52
:202B6000CD310108D63101080D6619005FF36E3CDF310108E8310108F2310108FC31010819
:202B8000053201080F320108143201081732010830B53D4BADF5FB3D91B018684FF4FA3293
:202BA00090A9FEF731F8394A1068516803AB03C31189927A19809A7003A9062206A8FFF7D5
:202BC00029F83024082811D103AA114611F8013B002B55D0303B092B01D90A46F5E71346D7
:202BE0000132197830390929F9D936E010B12848FDF77AFC274B196821B1274B06A81A787C
:202C0000FFF7BCFA02AC4FF420624FF420434FF4007100943220FDF7B3FF05460120FDF74F
:202C20002FFC029A2AB906A8FFF702FA88B11B480DE003AB294606A8FFF73BF910B11848AB
:202C4000FDF752FC039A23689A4202D01548FDF74BFC0020FDF714FCD4E7013B1A78A2F184
:202C6000300109290CD8392A07D001321A70062203A906A8FEF7CEFFA4E703F80149EDE72E
:202C80000948FDF731FCF2E714000020313201081C3201087C02002078020020213201085E
:202CA000E3310108263201082B320108F0B5ADF5C85D81B00622704926A8FEF7ABFFA8B9E4
:202CC0000DF510637A226D4926A8FFF7F2F810B16B48FDF709FCDDF800397A2B02D06948DC
:202CE000FDF702FC26A8FFF7EDF904E0082802D06548FDF7F9FB01225F4926A8FEF78AFFA6
:202D000010B16248FDF7F0FB00238DF818304FF4805202AB0DF5106126A8FFF71FF810B1A8
:202D20005A48FDF7E1FB029B40F6FE72013B934202D95648FDF7D8FB03A8FEF752F964231B
:202D40000093029AB0AB0DF5106103A8FDF796FF071E02DC4E48FDF7C7FB9DF8C032012B40
:202D600002D04B48FDF7C0FBB8AC01267B1E9E4274DA14F8103C032BA4F1100502D044485F
:202D8000FDF7B2FB0323434A29460DF51060FFF74BFE80B16168A5686D1A7F2D28BF7F25FA
:202DA00006AB0DF510602A4601441846FDF708FA002242554FE00423374A29460DF5106076
:202DC000FFF732FE50B161680DF51060FFF716FE002840D03148FDF787FB3CE00423304AA3
:202DE00029460DF51060FFF71FFE30B121460DF51060FFF7D5FD2B4B0DE004232A4A2946F0
:202E00000DF51060FFF710FE38B121460DF51060FFF7C6FD254B18601DE00423244A2946D8
:202E20000DF51060FFF700FE30B161680DF51060FFF7E4FD1F4B0DE004231F4A29460DF5E1
:202E40001060FFF7F1FD30B161680DF51060FFF7D5FD1A4B18700236203487E726A8FFF78F
:202E600031F99DF8183013B106A8FDF71BFB0DF5C85D01B0F0BD00BF3C320108B832010821
:202E800046320108263201084B320108513201086E32010856320108633201086A320108C1
:202EA0007032010814000020793201087C0200208732010878020020943201088002002014
:202EC0001FB5FFF713FB2120FFF7E4FB0028FAD00120FFF72BFBFFF7F1FB052300936022B6
:202EE000022330B90821FFF729FB384B01221A7004E004214FF48000FFF720FB0120FFF75D
:202F00002DFB0020FFF73AFB4FF48050FFF740FB0020FFF747FB0020FFF792FB0220FFF7E7
:202F200023FB01212A48FFF791FB01210F20FFF799FB012145F61100FFF7A0FB4FF4C0433D
:202F400002932448002302A98DF80C308DF80D308DF80E308DF80F30FFF766FA0320FFF729
:202F60005DFA3920FFF796FB0028FAD01A4B1B4A5A601B4A1B48F02182F8231000229A6002
:202F800007221A604FF400710122FDF7B9FA0F4B1B7813B11448FDF785FA0020FDF7BCFBC5
:202FA00010B11248FDF7A0FA012211491148FEF709FE10B11048FDF797FAFFF777FE0F4B33
:202FC0001B780BB1FFF754FDFFF7E2FD790200201F0040000000024010E000E0FFDB05009B
:202FE00000ED00E000040240A4320108AA320108AF32010848000020B23201088002002019
:2030000070B4840746D0541E002A41D0CDB2034602E0621EE4B3144603F8015B9A07F8D162
:20302000032C2ED9CDB245EA05250F2C45EA054519D903F110022646103E0F2E42F8105C39
:2030400042F80C5C42F8085C42F8045C02F11002F2D8A4F1100222F00F0204F00F041032B4
:20306000032C13440DD91E462246043A032A46F8045BFAD8221F22F003020432134404F065
:2030800003042CB1C9B21C4403F8011BA342FBD170BC704714460346C2E700BF70B402B3E2
:2030A000124B1E6804E0E41A18D1BBB1013A18D010F8015B73192C465B7803F00303012B79
:2030C00011F8013B08BF05F12004F5186D7805F00305012DE7D12033E41AE7D0204670BC5B
:2030E00070471446204670BC704700BF1800002080F0FA020002000090000000020000007F
:20310000000000000100000020200096EDDA8AF3E1D5929F8F8783818090989C9EF8EA9639
:2031200091EDCCDA2870745000645860206E546838305C6C7A48401044624C727678222AC9
:203140002B2C3A3B3C3D3E3F5B5D7C7F004355454141414143454545494949414145929241
:203160004F4F4F5555594F554F9C4F9E9F41494F55A5A5A6A7A8A9AAABACADAEAFB0B1B210
:20318000B3B4414141B8B9BABBBCBDBEBFC0C1C2C3C4C54141C8C9CACBCCCDCECFD1D145D5
:2031A000454549494949D9DADBDCDD49DF4FE14F4F4F4FE6E8E85555555959EEEFF0F1F26F
:2031C000F3F4F5F6F7F8F9FAFBFCFDFEFF626973742E74787400424953544F50454E004264
:2031E0004953545745525200424953545753495A4500424953544F50454E32004249535413
:203200005245525200424953545253495A4500455241530053490044455252004F4C4F478F
:2032200000534552520046554C4C0046494C4553006C6F673030302E747874006C616765B3
:20324000722E6366670057434647005743464732005243464700737461727475704D6F72BB
:20326000736500757365535049003F5350493F00626175645261746500707265616C6C6FBC
:2032800063427974657300707265616C6C6F6347726F77006275696C74496E53656C66541E
:2032A00065737400584F534320004341524400303A004441544120007B0A0922737461723D
:2032C0007475704D6F72736522203A2022222C0A092275736553504922203A2066616C73D3
:2032E000652C0A0922626175645261746522203A20323030303030302C0A092270726561E9
:203300006C6C6F63427974657322203A203130343835373630302C0A0922707265616C6CB0
:203320006F6347726F7722203A2066616C73650A7D0A000000202020202020202020282874
:2033400028282820202020202020202020202020202020202088101010101010101010108D
:203360001010101010040404040404040404041010101010101041414141414101010101DB
:20338000010101010101010101010101010101011010101010104242424242420202020229
:2033A00002020202020202020202020202020202101010102000000000000000000000008D
:2033C0000000000000000000000000000000000000000000000000000000000000000000ED
:2033E0000000000000000000000000000000000000000000000000000000000000000000CD
:203400000000000000000000000000000000000000000000000000000000000000000000AC
:20342000000000000000000000000000000000000000000000000000240000000000000068
:2034400001020304010203040607080900C2010034330108FFFFFFFFFFFFFFFFFFFFFFFF13
:20346000FFFFFFFFFFFFFFFFFFFFFFFFFFFFFFFFFFFFFFFFFFFFFFFFFFFFFFFFFFFFFFFF6C
:20348000FFFFFFFFFFFFFFFFFFFFFFFFFFFFFFFFFFFFFFFFFFFFFFFFFFFFFFFFFFFFFFFF4C
:2034A000FFFFFFFFFFFFFFFFFFFFFFFFFFFFFFFFFFFFFFFFFFFFFFFFFFFFFFFFFFFFFFFF2C
:2034C000FFFFFFFFFFFFFFFFFFFFFFFFFFFFFFFFFFFFFFFFFFFFFFFFFFFFFFFFFFFFFFFF0C
:020000040807EB
:00000001FF
